:020000040800F2
:100000007809002079020008333700089F31000882
:10001000313700087D040008554100080000000049
:10002000000000000000000000000000373700085A
:10003000FD040008000000003537000839370008CB
:10004000930200089302000893020008930200083C
:10005000930200089302000893020008930200082C
:10006000930200089302000893020008810400082C
:100070008D04000893020008930200089302000810
:1000800093020008000000007104000893020008B9
:1000900093020008930200089302000893020008EC
:1000A00093020008B5370008930200089302000885
:1000B000C137000893020008930200089302000869
:1000C00093020008930200089302000893020008BC
:1000D00093020008494100089302000893020008B7
:1000E000930200089302000893020008930200089C
:1000F0009302000893020008930200080000000029
:1001000000000000930200080000000093020008B5
:100110009302000800000000930200089302000808
:10012000930200089302000893020008930200085B
:100130009302000800000000000000009302000885
:100140009302000893020008000000000000000075
:10015000000000000000000000000000000000009F
:1001600000000000000000000000000093020008F2
:1001700093020008000000000000000000000000E2
:1001800000000000930200080000000000000000D2
:10019000000000000000000000000000000000005F
:1001A0000000000000000000930200089302000815
:1001B0009302000893020008930200080000000068
:1001C0000000000093020008000000000000000092
:1001D000930200089302000800F002F800F03CF8D7
:1001E0000AA090E8000C82448344AAF10107DA4592
:1001F00001D100F031F8AFF2090EBAE80F0013F0A8
:10020000010F18BFFB1A43F00103184728400000F4
:1002100048400000103A24BF78C878C1FAD8520785
:1002200024BF30C830C144BF04680C607047000070
:100230000023002400250026103A28BF78C1FBD8EF
:10024000520728BF30C148BF0B6070471FB503F08D
:10025000CBFF1FBD10B510BD00F0CFF81146FFF762
:10026000F5FF03F089FF00F0EDF803B4FFF7F2FFAC
:1002700003BC00F0F5F80000094880470948004732
:10028000FEE7FEE7FEE7FEE7FEE7FEE7FEE7FEE746
:10029000FEE7FEE704480549054A064B70470000A3
:1002A000A5370008D901000878030020780900204C
:1002B000780500207805002053EA020C00F06980E0
:1002C0002DE9F04B4FF00006002B1FBFB3FA83F56A
:1002D00003FA05F424FA05F65E4012BF1643B2FA9B
:1002E00082F502FA05F4C5F120051EBF22FA05FCCD
:1002F00044EA0C04203556EA044C4FEA144418BF73
:10030000641C4FF000084FF00009904271EB030CA1
:1003100039D3002919BFB1FA81F701FA07F6B0FA0B
:1003200080F700FA07F6C7F120071EBF20FA07FC86
:1003300046EA0C062037B6FBF4FCA7EB0507103F96
:1003400007F01F0BCBF120060CFA0BFB2CFA06F67C
:1003500044BFB3460026202FA4BF5E464FF0000BDB
:100360005BEA060C08BF4FF0010B19EB0B09ABFB66
:10037000027C48EB0608C01B06FB02CC0BFB03CC3F
:1003800071EB0C01C1E70B46024641464846BDE809
:10039000F08B13B54FF000004FF00001AFF3008079
:1003A000BDE81C4070474FF0000200B5134694466C
:1003B0009646203922BFA0E80C50A0E80C50B1F1BD
:1003C0002001BFF4F7AF090728BFA0E80C5048BFD1
:1003D0000CC05DF804EB890028BF40F8042B08BF6F
:1003E000704748BF20F8022B11F0804F18BF00F86B
:1003F000012B7047704770477047754600F02CF826
:10040000AE4605006946534620F00700854618B001
:1004100020B5FFF73FFFBDE820404FF000064FF04A
:1004200000074FF000084FF0000B21F00701AC4629
:10043000ACE8C009ACE8C009ACE8C009ACE8C00948
:100440008D46704710B50446AFF300802046BDE8E6
:100450001040FFF70ABF0000004870471803002053
:1004600001491820ABBEFEE72600020070470000DD
:10047000014800F0EBBC000010000020FEE7000087
:10048000014801F008B8000058020020014801F0BE
:1004900002B80000B80200200D4902688A4201D269
:1004A0000C4901E00B492031D2B21423083AB2FBC7
:1004B000F3F2436C02F01F0223F00303194481643A
:1004C00004498031C16401219140016570470000F9
:1004D00008040240000802400179074A02EB810249
:1004E0004265054A4432491E826501F01F0201211E
:1004F0009140C16570470000FC080240704772B629
:10050000FEE770472DE9F84F4FF000080446CDF89C
:1005100000800D4694F85820DFF8EC936169474657
:100520004046012A0AD00126F84A84F8586041B1B1
:10053000296A012905D0A36EEBB129E00220BDE8AC
:10054000F88F6868092838D1A96A4FF4785041B10A
:100550002B6801F07C0100EA53400843E96A084334
:1005600002E0296800EA51402168CB6C1340034344
:10057000CB64606621E0C4E91971A96A286A31B1C7
:1005800001F07C01401E0843E96A084300E0401E78
:1005900029682B79C1F3846103F01F03994001435B
:1005A000A06E401EA066636E43EA0103636604D139
:1005B0002068C16C11401943C164206802F000FE3C
:1005C00058B995F8250098B12068C16895F826209B
:1005D00021F4401141EA4251C160206802F0F8FD67
:1005E0008246206802F0ECFD5AEA00000DD0FBE0E4
:1005F00095F8260095F82410400540EA015120683E
:10060000C26822F440121143E6E7A86A30B1E86AF2
:1006100020B195F8250001285ED003E095F825006B
:10062000012804D02068C16821F0007103E020682F
:10063000C16841F00071C16095F83000012852D0C6
:100640002068016921F002010161AA682968206817
:10065000B2F1004F38D002F0D6FD2068416921F098
:100660000041416120686969C268C2F3C102520059
:1006700091402A69042A44D000EB82002B68026E64
:10068000DFF88CC203F0F84302EA0C020B431A4372
:1006900042F00041016620682A69A96900EB8200E6
:1006A000026E22F080720A430266297F226828695E
:1006B000012923D05FF0000102EB8000026E22F0DE
:1006C00000720A4302668FE0002202F09CFD20685F
:1006D000416941F00041C4E7E06D40F02000E06571
:1006E0004FF00108A8E7D5E90D1001432068026921
:1006F00022F4FF7242F002021143A5E74FF00071AD
:10070000DAE7002102F052FD400320684FF00001BB
:1007100072D002F04BFD90FAA0F0B0FA80F1286898
:1007200042036ED090FAA0F0B0FA80F0814204D17A
:1007300000221146206802F07DFD0121206802F0B0
:1007400035FD400320684FF001015DD002F02EFD21
:1007500090FAA0F0B0FA80F12868420359D090FADC
:10076000A0F0B0FA80F0814204D10022012120687B
:1007700002F060FD0221206802F018FD40032068AD
:100780004FF0020148D002F011FD90FAA0F0B0FA4B
:1007900080F12868420344D090FAA0F0B0FA80F0CB
:1007A000814204D100220221206802F043FD03218E
:1007B000206802F0FBFC400320684FF0030133D0B7
:1007C00002F0F4FC90FAA0F0B0FA80F1286842033D
:1007D0002FD090FAA0F0B0FA80F0814204D100222C
:1007E0000321206802F026FD2068816811F0010FC6
:1007F00022D0B6E000E004E002F0D8FCC0F384614F
:100800008DE7C0F3846091E702F0D0FCC0F384610F
:10081000A2E7C0F38460A6E702F0C8FCC0F38461DD
:10082000B7E7C0F38460BBE702F0C0FCC0F38461AB
:10083000CCE7C0F38460D0E72A7B296850F8B03F4A
:10084000C1F3120C23EA0C0302F0180C314A22FA0D
:100850000CF20A4013430360E96849457ED12868D9
:1008600041031CD090FAA0F1B1FA81F1491C01F0CA
:100870001F0109294FEA403132D8002912D000BFA8
:1008800090FAA0F1B1FA81F101F1010101F01F012B
:1008900006FA01F609D100BFC0F3846109E0C0F394
:1008A0008461E3E7C0F38461EEE790FAA0F1B1FA66
:1008B00081F101F1010101F01F0146EA816102D1DC
:1008C000C0F3846003E090FAA0F0B0FA80F000F189
:1008D000010000F01F0000EB400041EA00513AE047
:1008E00000290ED090FAA0F1B1FA81F101F10101D5
:1008F00001F01F0106FA01F60ED100BFC0F38461BA
:100900000EE0C0F38461F1E700007F400040100476
:1009100000F0FF03FFFF070090FAA0F1B1FA81F1A8
:1009200001F1010101F01F0146EA816102D1C0F32A
:10093000846003E090FAA0F0B0FA80F000F10100CA
:1009400000F01F002B4A00EB400002EB005041EA90
:10095000000141F00071AA68206800E001E002F0A7
:1009600052FC25482A68024240D024488168244B22
:1009700001F0E0719A4202D0224B9A421BD10B0245
:1009800019D42268B2F1A04F30D1826841F400013D
:1009900022F0E0720A4382601B481C490068B0FBE9
:1009A000F1F0801C00EB4000800000E0401E009051
:1009B0000028FBD11AE0164D164BAA4207D1CD01F3
:1009C00005D422689A4211D041F0807109E0124D9D
:1009D000AA420BD14A0209D422689A4206D041F4B5
:1009E0008001826822F0E0720A43826084F85870C5
:1009F0004046A4E5000020FE0000088000030050EF
:100A0000000021C31000C0900C000020400D030026
:100A1000000052C700010050000084CB70477047AF
:100A2000704770472DE9F84F00270446009790F86B
:100A30005800DFF8E0930D46B846012811D0012692
:100A400084F85860206802F0BFFB60B1E06D40F0B0
:100A50002000E0655FF0010784F858803846BDE863
:100A6000F88F0220FBE7D5E900210C23206803EA78
:100A700091131844036B01F01F014FF01F0C0CFA87
:100A800001FCC2F3846223EA0C038A40134303632C
:100A9000206802F099FB8246206802F08DFB5AEA3A
:100AA00000003CD1AA6829682068B2F1004F37D015
:100AB00002F09AFB2068416921F000414161206801
:100AC0006969C268C2F3C102520091402A69042ACE
:100AD00031D000EB82002B68026EDFF83CC303F0DC
:100AE000F84302EA0C020B431A4342F0004101664C
:100AF00020682A69A96900EB8200026E22F08072E8
:100B00000A430266297F22682869012910D0002142
:100B100002EB8000026E22F000720A4302667DE062
:100B2000002202F061FB2068416941F00041C5E705
:100B30004FF00071ECE7002102F032FB4003206827
:100B40004FF0000172D002F02BFB90FAA0F0B0FA47
:100B500080F1286842036ED090FAA0F0B0FA80F0DD
:100B6000814204D100221146206802F05BFB012182
:100B7000206802F015FB400320684FF001015DD0B2
:100B800002F00EFB90FAA0F0B0FA80F12868420360
:100B900059D090FAA0F0B0FA80F0814204D100223E
:100BA0000121206802F03EFB0221206802F0F8FAE1
:100BB000400320684FF0020148D002F0F1FA90FAA9
:100BC000A0F0B0FA80F12868420344D090FAA0F077
:100BD000B0FA80F0814204D100220221206802F0A4
:100BE00021FB0321206802F0DBFA400320684FF06C
:100BF000030133D002F0D4FA90FAA0F0B0FA80F1F9
:100C0000286842032FD090FAA0F0B0FA80F0814219
:100C100004D100220321206802F004FB20688168CF
:100C200011F0010F22D0ACE000E004E002F0B8FACD
:100C3000C0F384618DE7C0F3846091E702F0B0FAFD
:100C4000C0F38461A2E7C0F38460A6E702F0A8FACB
:100C5000C0F38461B7E7C0F38460BBE702F0A0FA99
:100C6000C0F38461CCE7C0F38460D0E72A7B2968B5
:100C700050F8B03FC1F3120C23EA0C0302F0180C39
:100C8000664A22FA0CF20A4013430360E9684945B8
:100C900077D1286841031CD090FAA0F1B1FA81F114
:100CA000491C01F01F0109294FEA403132D80029BF
:100CB00012D000BF90FAA0F1B1FA81F101F1010167
:100CC00001F01F0106FA01F609D100BFC0F38461EB
:100CD00009E0C0F38461E3E7C0F38461EEE790FAD2
:100CE000A0F1B1FA81F101F1010101F01F0146EA21
:100CF000816102D1C0F3846003E090FAA0F0B0FA01
:100D000080F000F1010000F01F0000EB400041EA1C
:100D1000005132E000290ED090FAA0F1B1FA81F131
:100D200001F1010101F01F0106FA01F606D100BF31
:100D3000C0F3846106E0C0F38461F1E790FAA0F1AA
:100D4000B1FA81F101F1010101F01F0146EA81616F
:100D500002D1C0F3846003E090FAA0F0B0FA80F012
:100D600000F1010000F01F002D4A00EB400002EBF3
:100D7000005041EA000141F00071AA68206802F0C9
:100D800033FA28482A6802423FF466AE2648816852
:100D9000264B01F0E0719A4202D0254B9A421CD1B9
:100DA0000B021AD42268B2F1A04F7FF455AE8268CC
:100DB00041F4000122F0E0720A4382601D481E499E
:100DC0000068B0FBF1F0401C00EB4000800000E048
:100DD000401E00900028FBD13EE6184D184BAA4259
:100DE00007D1CD0105D422689A42F5D041F0807137
:100DF00009E0144DAA42EFD14A02EDD422689A428A
:100E0000EAD041F48001826822F0E0720A438260F5
:100E100022E6000000007F4000F0FF03FFFF070014
:100E2000000020FE0000088000030050000021C3E5
:100E30001000C0900C000020400D0300000052C7BD
:100E400000010050000084CB704770472DE9F05F2F
:100E50000446006806684568DFF854B2DBF808000D
:100E600000F01F07B0070ED5A8070CD5E06DC0062F
:100E700003D4E06D40F40060E0652046FFF741FBDD
:100E8000216802200860DFF82CA270074FF0A0480C
:100E900001D5680703D4300737D5280735D5E06D6D
:100EA000C00603D4E06D40F40070E065206802F0F5
:100EB00093F920B32068504501D1424600E0024634
:100EC000824208D03FB1052F05D0092F03D05045ED
:100ED00003D1414602E0C16801E00146C9688904C6
:100EE0000DD4016809070AD502F06EF958B3E06D18
:100EF00040F01000E065206E40F0010020662046C2
:100F0000FFF7A2FF21680C200860B00601D5A806F3
:100F100003D4700658D5680656D5E06DC00603D4D4
:100F2000E06D40F40050E0652068C16C11F4C07FB2
:100F30001AD00021894602F04FF902462068504538
:100F400014D1434613E02068416821F00C01416050
:100F5000E06D20F48070E065E06DC004CFD4E06DFA
:100F600040F00100E065CAE70121E3E70346834260
:100F700008D03FB1062F05D0072F03D0504503D12D
:100F8000414602E0C16801E00146C968B9F1000FBD
:100F900014D08B0102D58AB18A040FD4026852069C
:100FA0000CD589020AD402F007F9E8B3E06D40F0ED
:100FB0001000E065206E40F0010020662046FFF73B
:100FC0002DFD21686020086030060BD5280609D564
:100FD000E06D40F48030E065204600F067F921685C
:100FE00080200860F0050CD5E8050AD5E06D40F4D6
:100FF0000030E0652046FFF713FD21684FF4807054
:101000000860B0050CD5A8050AD5E06D40F4802035
:10101000E0652046FFF705FD21684FF40070086089
:10102000F0062ED5E80600E008E02AD5E06BD0B146
:10103000AFB1DBF8080000F4604013E020684168BD
:1010400021F060014160E06D20F48050E065E06DCA
:10105000C005B3D4E06D40F00100E065AEE7206864
:10106000C068C00750B1E06D40F48060E065206E5C
:1010700040F0020020662046FFF7E7FE21681020BE
:101080000860700512D5680510D5E06D40F4804009
:10109000E065206E40F00800206621684FF4806013
:1010A00008602046BDE8F05FFFF7B9BCBDE8F09FDF
:1010B0000003005000010050F8B54FF00005040097
:1010C0002E46009502D0E06D10B107E00120F8BD7A
:1010D000204600F0EDF8266684F8586020688168A4
:1010E000C1F3407119B18168684A1140816020687C
:1010F0008168C1F3007189B98168654A114041F086
:1011000080518160634864490068B0FBF1F04000A1
:10111000801C00E0401E00900028FBD12068816800
:10112000C1F3007141B9E16D41F01001E165216E3B
:1011300041F001012166012502F046F8E16DC90682
:1011400000D430B1E06D40F01000E0650125284684
:10115000F8BDE06D20F4807040F00200E06520688A
:10116000806810F0010F11D14FF0A04080684B490A
:1011700000F00100896801F00101084306D14848E8
:101180006168826822F47C120A438260E168E06B45
:10119000627F0843A16841EA4231084394F8241071
:1011A00040EA0140012904D1218D3E4A02EB414130
:1011B0000843E16A29B101F47871226B014342EAE4
:1011C00001002268D168384B19400143D160206882
:1011D0000169626B21F0406111430161206801F0F7
:1011E000EBFF70BB207F94F83810800340EA410287
:1011F0002168C86844F2020398431043C86020691C
:101200000028206801690AD041F48031016120681A
:1012100050F8C01F22696FF30D01114307E021F45C
:1012200080310161206850F8C01F6FF30D0101602B
:1012300094F8400001280CD02068016921F00101D8
:101240000161606901282068016B21F00F0111D054
:1012500013E0D4E911010843D4E913121143084300
:1012600021680A6940F2FC739A43104340F0010080
:101270000861E6E7226A521E11430163E06D20F027
:10128000020040F00100E06561E70000C0FFFF5F81
:10129000C0FFFF7F0C000020400D03000001005044
:1012A000000300500000FEFF0740F0FF7047000001
:1012B000F0B597B0064614216846FFF774F844214C
:1012C00005A8FFF770F835493068884263D1C0013E
:1012D00005908003149005A800F0C2FB08B1FFF749
:1012E0000EF92F49C86C40F40050C864C86C00F473
:1012F00000501690C86C40F00100C864C86C00F043
:1013000001001690C86C40F00400C864C86C00F07E
:1013100004001690C86C40F00200C864C86C032436
:1013200000F002001690502000258DE8310069463B
:101330004FF0904000F06CF920270097694619485B
:10134000CDE9014500F064F948F204008DE8310070
:101350006946154800F05CF9154C144820602420BB
:10136000C4E901058020C4E90350400060618000A9
:101370002562C4E90607204600F0EAF808B1FFF745
:10138000BEF87465002201211220A66200F0D0FA96
:10139000122000F0BFFA17B0F0BD000000010050AD
:1013A0000010024000080048000400480800024005
:1013B0005802002010B590F8253000210122022BA0
:1013C00003D00421C163012122E003681C6824F0DA
:1013D0000E041C60836C1C6824F480741C60036819
:1013E0001C6824F001041C6090F84430046C03F085
:1013F0001F0302FA03F36360D0E913345C60436DAA
:1014000033B11C6824F480741C60D0E916345C602D
:1014100080F82520002280F82420084610BD70B5F1
:1014200090F82520002401212346022A07D0042217
:10143000C26380F8251080F82430012429E0026876
:10144000156825F00E0515600268156825F0010580
:101450001560826C156825F48075156090F844203D
:10146000056C02F01F0201FA02F26A60D0E913254E
:101470005560426D32B1156825F480751560D0E96C
:101480001625556080F8251080F82430816B01B155
:101490008847204670BDF0B4016C0C6801680D6887
:1014A00090F8442002F01F06042202FA06F32342B9
:1014B00011D06B070FD50B689B0603D40B6823F084
:1014C00004030B6090F8441001F01F018A40016C86
:1014D0004A60016B1DE0022303FA06F727424FF032
:1014E000000C4FF0010218D0AF0716D50C68A40607
:1014F00005D40C6824F00A040C6080F8252090F8CC
:10150000441001F01F018B40016C4B6080F824C037
:10151000C16A00291AD0F0BC08470823B34023420F
:1015200014D02B0712D50B6823F00E030B6090F834
:101530004410036C01F01F0102FA01F15960C2630B
:1015400080F8252080F824C0416BE2E7F0BC7047AA
:1015500070B504000CD02B4A21681420914209D2A6
:10156000294A0A44B2FBF0F08000606427480AE090
:10157000012070BD234A52420A44B2FBF0F08000C1
:101580006064204808382064022084F825000A6836
:1015900047F6F0708243D4E902031843D4E90435D6
:1015A0002B431843A3691843E3691843236A18437C
:1015B000104308602046FEF76FFFA0680025B0F5D5
:1015C000804F00D16560A16C20790860D4E91301D7
:1015D00041606068401E032808D82046FEF77CFF63
:1015E000606D0560D4E91601416002E06565A5659E
:1015F000E565E563012084F8250084F82450002087
:1016000070BD000008040240F8FFFDBF000002406A
:101610002DE9F04FDFF82092002301260324A9F1E1
:10162000040B85B00F2709F1040AABF1040EFAE0B0
:1016300006FA03F52A407CD091F804C00CF0030CA4
:10164000BCF1010F02D0BCF1020F26D1D0F808C0C6
:10165000CDF800C04FEA430C04FA0CF8CDF810C0E6
:10166000DDF800C02CEA080CCDF800C0D1F80C80E1
:10167000DDF810C008FA0CF8DDF800C048EA0C08E4
:10168000C0F80880D0F804C02CEA050C0D79C5F329
:1016900000159D4045EA0C0545600D79ED43AD0709
:1016A0000ED0C5684FEA430804FA08FC25EA0C0589
:1016B000D1F808C00CFA08FC4CEA050CC0F80CC0C4
:1016C0000D7905F00305022D16D1DD0800EB850C20
:1016D000CDF808C0DCF820805D074FEAD56C07FA2A
:1016E0000CF528EA05080D6905FA0CF5DDF808C0C7
:1016F00045EA0805CCF8205005684FEA430CCDF8C0
:1017000008C004FA0CFC25EA0C0591F804C00CF0A2
:101710000308DDF808C008FA0CF848EA0508C0F824
:1017200000804D6815F4403F7CD0444DD5F860C032
:1017300000E077E04CF0010CC5F860C02D6E23F09E
:10174000030C05F0010500953D4D65440295AD681B
:101750004FEA837C4FEA1C7807FA08FC25EA0C055F
:10176000B0F1904F06D0DFF8DCC0604505D14FF0F6
:10177000010C20E04FF0000C1DE0DFF8CCC060450C
:1017800002D14FF0020C16E0DFF8C0C0604502D174
:101790004FF0030C0FE0DFF8B8C0604502D14FF006
:1017A000040C08E0DFF8ACC0604502D14FF0050C36
:1017B00001E04FF0060C0CFA08FC4CEA050C029D07
:1017C000C5F808C0D9F80050CC46D1F8048095433C
:1017D0005FEAC82800D51543CCF80050DAF800506D
:1017E000D446D1F8048095435FEA882800D5154394
:1017F000CCF80050DBF80050DC46D1F8048095436B
:101800005FEA883800D51543CCF80050DEF8005068
:10181000F446D1F8048095435FEAC83800D51543F3
:10182000CCF800505B1C0A6832FA03F57FF400AF75
:1018300005B0BDE8F08F0000080401400010024030
:10184000000001400004004800080048000C004867
:1018500000100048001400480AB18161704781629D
:1018600070470000014880687047000000000020B9
:10187000024881684268114481607047000000207E
:1018800010B50024032000F073F80F2000F008F8D2
:1018900008B1012401E000F025F8204610BD000049
:1018A00070B50E4E05460024706898B14FF47A71F9
:1018B000B1FBF0F00A490968B1FBF0F000F0F4FD6B
:1018C00040B9102D06D200222946501E00F030F8F3
:1018D000356000E00124204670BD000000000020BB
:1018E0000C0000200A4882B0016E41F0010101663F
:1018F000016E01F001010091816D41F0805181651F
:10190000806D00F08050009002B000F0A1B800009F
:1019100000100240002809DB00F01F020121914065
:101920004009800000F1E020C0F80011704700007D
:10193000F0B40E4B1B680C46C3F30223C3F107053A
:10194000042D00D90425191D072901D2002300E028
:10195000DB1E012606FA05F1491E214099409E40F2
:10196000761E16403143F0BC02F0F5BB0CED00E0F2
:10197000064900F0070208684FF6FF03184040EAE6
:101980000220034A10430860704700000CED00E09D
:101990000000FA052B492C4B0A6832214A432B4997
:1019A00040B1B0F5007F086829D020F4C06040F451
:1019B00080602CE00868C0F34120022804D051F870
:1019C000800F20F4807022E0D1F8800020F4807035
:1019D000C1F88000086820F4C06040F4007008601E
:1019E000B2FBF3F0401C00E0401E4A69520501D5ED
:1019F0000028F9D1486940050AD503207047C0F393
:101A00004120022806D051F8800F40F48070086011
:101A100000207047D1F8800040F48070C1F8800049
:101A2000086820F4C06040F400700860B2FBF3F076
:101A3000401C00E0401E4A695205DBD50028F9D160
:101A4000D8E700000C00002040420F00007000406A
:101A50000248816841F48041816070470070004015
:101A60002DE9F8430446006800269D4D00035ED52D
:101A7000A86D0027C00008D4A86D40F08050A8656C
:101A8000A86D012700F080500090DFF85892D9F837
:101A9000001041F48071C9F80010FFF7E3FE8046A2
:101AA00006E000BFFFF7DEFEA0EB080002282BD8FF
:101AB000D9F80000C005F5D5D5F8900010F44070B5
:101AC00014D0216C814211D0D5F89000D5F8901037
:101AD00020F4407041F48031C5F89010D5F8901092
:101AE00021F48031C5F89010C5F89000C00711D0DE
:101AF000FFF7B8FE804641F2883907E0FFF7B2FEF3
:101B0000A0EB0801494501D903260BE0D5F8900068
:101B10008007F3D5D5F89000216C20F4407008437D
:101B2000C5F890001FB1A86D20F08050A8652078FE
:101B3000C00707D0D5F88800616820F0030008438B
:101B4000C5F888002078800707D5D5F88800A168F7
:101B500020F00C000843C5F888002078400707D51E
:101B6000D5F88800E16820F030000843C5F8880007
:101B70002078000707D5D5F88800216920F0C0003B
:101B80000843C5F888002078800607D5D5F8880076
:101B9000616920F440600843C5F888002078400659
:101BA00007D5D5F88800A16920F440500843C5F84E
:101BB00088002078000607D5D5F88800E16920F470
:101BC00040400843C5F888002088C00507D5D5F8EF
:101BD0008800216A20F440300843C5F88800208836
:101BE000800507D5D5F88800616A20F440200843B5
:101BF000C5F88800208840050FD5D5F88800A16A6F
:101C000020F440100843C5F88800A06AB0F5801F92
:101C100003D1E86840F48010E860208800050FD503
:101C2000D5F88800E16A20F440000843C5F8880030
:101C3000E06AB0F5800F03D1E86840F48010E860F6
:101C40002088C0040FD5D5F88800216B20F04070A3
:101C50000843C5F88800206BB0F1807F03D1E868A5
:101C600040F48010E86020884FF0006180040ED5B9
:101C7000D5F88800626B20F040601043C5F88800FA
:101C8000606B884203D1E86840F48010E8602088E7
:101C900040040ED5D5F88800A26B20F040601043B8
:101CA000C5F88800A06B884203D1E86840F4801032
:101CB000E860208800040FD5D5F88800E16B20F09B
:101CC00040500843C5F88800E06BB0F1805F03D155
:101CD000E86840F48030E8603046BDE8F8830000F2
:101CE00000100240007000402DE9F0470E4605004C
:101CF0004FF0000725D0DFF89C81D8F8000000F0F5
:101D00000F00B0420CD2D8F8001021F00F0131437F
:101D1000C8F80010D8F8000000F00F00B04210D151
:101D200029685D4CC80741F2883A52D06868DFF8EC
:101D30006C91032808D00228206826D0400500288E
:101D400025DB0120BDE8F08720688001F9D5E06837
:101D5000E068534BC0F30310401CB3FBF0F0E268A3
:101D6000C2F306225043E268C2F34162521C5200A1
:101D7000B0FBF2F0484515D9A06810F0F00F0AD07A
:101D800088070FD5A86830B10CE08003D7E700F0D2
:101D9000B3F8484506D9A06820F0F00040F0800074
:101DA000A0608027A068696820F003000843A06055
:101DB000FFF758FD814605E0FFF754FDA0EB090150
:101DC00051453AD8A068696800F00C00B0EB810F6B
:101DD000F2D12868810714D5400703D5A06840F4E4
:101DE000E060A0602878000705D5A06820F4605066
:101DF00040F4E060A060A068A96820F0F00008430B
:101E000004E0802F03D1A06820F0F000A060D8F893
:101E10000010404601F00F01B14216D9016821F0CF
:101E20000F0131430160FFF71DFD074607E000BFCA
:101E3000FFF718FDC11B514501D9032082E7D8F8EF
:101E4000000000F00F00B042F2D12878400705D51D
:101E5000A068E96820F4E0600843A06028780007E3
:101E600006D5A068296920F4605040EAC100A0604E
:101E700000F042F8A1680B4AC1F30311515C01F074
:101E80001F01C8400849086008480068BDE8F047DD
:101E9000FFF706BD002002400010024000B4C40459
:101EA0000024F4001A4200080C000020000000206A
:101EB0000548064900688968054AC1F30221515C5A
:101EC00001F01F01C84070470C00002000100240C4
:101ED0002A4200080548064900688968054AC1F396
:101EE000C221515C01F01F01C84070470C00002066
:101EF000001002402A42000813498868C0F381029A
:101F00001248012A0AD08A68C2F38102022A05D047
:101F10008A68C2F38102032A01D000207047CA6890
:101F200002F00303CA68C2F30312521CB0FBF2F0C2
:101F3000CA68C968C2F306225043C1F34161491C13
:101F40004900B0FBF1F07047001002400024F4009B
:101F50002DE9F84304007AD02078F84DC00747D027
:101F6000A868E96800F00C0001F003010C2802D019
:101F7000082817D001E0032914D06068B0F5803F2D
:101F800017D0B0F5A02F286817D020F48030286033
:101F9000286820F4802028606068E0B1FFF762FCC8
:101FA000064614E02868800322D560680028D2D055
:101FB0001EE0286840F48030EDE740F4802028607F
:101FC000F7E700BFFFF74EFC801B642870D8286835
:101FD0008003F7D50CE0FFF745FC064605E000BF9F
:101FE000FFF740FC801B6428F0D828688003F7D4F2
:101FF000207880074CD5A868E96800F00C0001F053
:1020000003010C2802D004280DD001E002290AD0D7
:10201000E068002828682BD040F480702860FFF723
:1020200021FC064619E02868400502D5E068002832
:1020300091D06868217C20F0FE4040EA0160686031
:10204000BF480068FFF72CFC002800D120E072E1B7
:10205000FFF708FC801B0228B8D828684005F7D590
:102060006868217C20F0FE4040EA016068600FE073
:1020700020F480702860FFF7F5FB064605E000BFFE
:10208000FFF7F0FB801B0228A0D828684005F7D492
:102090002078000729D560690028D5F8940013D06E
:1020A00040F00100C5F89400FFF7DCFB064606E0AF
:1020B00090E000BFFFF7D6FB801B022886D8D5F83A
:1020C00094008007F6D510E020F00100C5F89400D8
:1020D000FFF7C8FB064604E0FFF7C4FB801B02289D
:1020E00078D8D5F894008007F6D42078400761D5D9
:1020F000A86D0026C00008D4A86D40F08050A865E7
:10210000A86D012600F0805000908E480168C90536
:1021100011D40168804641F480710160FFF7A2FB91
:10212000074604E0FFF79EFBC01B022852D8D8F8F0
:102130000000C005F6D5A068012815D00528D5F8FF
:10214000900016D020F00100C5F89000D5F890005E
:1021500020F00400C5F89000A06841F28838B8B1BA
:10216000FFF780FB07460EE0D5F8900040F0010035
:10217000F0E740F00400C5F89000F5E7FFF772FBC8
:10218000C11B414526D8D5F890008007F6D50CE054
:10219000FFF768FB074604E0FFF764FBC11B4145FE
:1021A00018D8D5F890008007F6D41EB1A86D20F09D
:1021B0008050A8652078800629D5A0690028D5F828
:1021C000980013D040F00100C5F89800FFF74AFBD3
:1021D000064606E075E000BFFFF744FB801B0228BF
:1021E0006FD8D5F898008007F6D510E020F00100F0
:1021F000C5F89800FFF736FB064604E0FFF732FB10
:10220000801B02285DD8D5F898008007F6D4E069D5
:10221000F0B3A968C1F3810103295DD002282868C1
:1022200020F08070286003D0FFF71CFB04464BE0D1
:10223000FFF718FB064604E0FFF714FB801B02289B
:102240003FD828688001F7D4F4E908016FF00F0245
:1022500002EB01110843218A5204490802EB415163
:10226000A26841EA02210843217D4FF07E424908DD
:1022700002EB41610843217B40EAC160E968324AD0
:1022800011400843E860286840F08070286000E052
:102290005EE0E86840F08070E860FFF7E3FA04462B
:1022A00005E000BFFFF7DEFA001B022809D8286806
:1022B0008001F7D54CE000BFFFF7D4FA001B0228DD
:1022C00002D90320BDE8F88328688001F4D4E868C7
:1022D0001E490840E8603BE00128F3D0E868226A24
:1022E00000F00301914226D1616A00F0F002090179
:1022F000103991421FD1A26A00F4FE41B1EB022FC6
:1023000019D194F82C2000F07841B1EBC26F12D1B2
:10231000218E00F4C00249084905A1F5001191423F
:1023200009D194F8341000F0C06049084906A1F1C1
:10233000007181420CD00120C4E70000001002406F
:1023400000000020007000400C809F01FCFFEEFEAA
:102350000020B7E770B5040009D0606A002540B1DD
:1023600025616561A56294F85D0040B10CE0012033
:1023700070BD6068B0F5827FF4D0E561F2E784F863
:102380005C50204600F05CF8022084F85D00206874
:10239000016821F040010160E1684FF4E062914280
:1023A00001D9002001E04FF48050B1F5706F02D0E8
:1023B000914200D0A562A188228901F4827102F4C1
:1023C00004421143227C02F002021143227D02F0FA
:1023D00001021143228B02F400721143227F02F0AA
:1023E0003802114394F8202002F080021143228D1C
:1023F00002F40052114322681160A169042202EA2A
:10240000114194F8242000F4805002F0100211438E
:1024100094F8342002F008021143A28902F4706299
:1024200011430143206841602068C16921F40061C3
:10243000C1612566012084F85D00002070BD0000A8
:1024400010B586B0044614216846FDF7ACFF134969
:10245000206888421FD11248816D41F40041816596
:10246000816D01F400410591C16C41F00401C1642A
:10247000C06C694600F0040005904FF4A050009035
:102480000220019000200290032003900620049077
:102490000448FFF7BDF806B010BD0000003C004046
:1024A000001002400008004810B5401EB0F1807FC7
:1024B00001D3012010BD4FF0E02460610F216017AF
:1024C00001F049FE0020A06107202061002010BD1E
:1024D000704770477047000030B590F83C20012AE3
:1024E00042D0012280F83C20CA688B6822F44072F6
:1024F0001A434B6822F480621A430B6822F400628C
:102500001A430B6922F480521A434B6922F4005299
:102510001A430B6B22F480421A430B8B22F4702275
:1025200042EA0342CB6922F080521A430F4D0368FE
:102530000024AB4202D00E4DAB4210D10D8D22F4DF
:10254000700242EA05520D6A22F080722A434D6AF7
:1025500022F000722A43C96A22F000520A435A64E8
:1025600080F83C40002030BD022030BD002C0140EE
:10257000003401407047704770470000F0B590F894
:102580003C20012A3AD0012580F83C50022280F8F4
:102590003D2003685A689C68194E1A4FB34201D017
:1025A000BB4204D122F4700C4A6842EA0C02DFF804
:1025B00058C002EA0C02D1F800C04CEA020CC3F881
:1025C00004C00268B2420DD0B2F1804F0AD00F4B66
:1025D0009A4207D00E4B9A4204D0BA4202D00D4B19
:1025E0009A4204D1896824F080031943916080F8ED
:1025F0003D50002180F83C100846F0BD0220F0BD9F
:10260000002C0140003401408FFFFFFD000400401A
:102610000008004000400140704710B5040003D09E
:1026200094F83D0010B107E0012010BD002084F8AF
:102630003C00204600F022F8022084F83D00211DD5
:10264000206801F0C3F8012084F8480084F83E00B7
:1026500084F83F0084F8400084F8410084F8420088
:1026600084F8430084F8440084F8450084F8460068
:1026700084F8470084F83D00002010BD08B5154AD5
:102680000168154891420ED1016E41F40061016666
:10269000006E002200F40060009011461920FFF740
:1026A00047F9192010E0B1F1804F11D1816D41F04F
:1026B00001018165806D002200F00100009002217F
:1026C0001C20FFF735F91C20BDE80840FFF722B9B0
:1026D00008BD0000002C01400010024070B5044607
:1026E00090F83C000025012814D0012684F83C60B5
:1026F000022084F83D0022689068364B184020F490
:102700007F409060086870282ED010DC10F00F0F0A
:1027100003D021E04FF0020070BD4FEA2012072ADB
:102720001AD2DFE802F0525252524A3840002A4B85
:10273000C21A984249D009DCB0F5805F0DD0B0F5DF
:10274000005F1CD0B0F1101F06D13EE0102A3CD033
:10275000202A3AD0502A38D0012584F83D60002044
:1027600084F83C00284670BDCB68D1E9012120687F
:1027700001F08AF82068816841F0770109E0CB68B0
:10278000D1E90121206801F07FF82068816841F4D7
:1027900080418160E1E7CA684968206801F01EFA5B
:1027A0005021206806E0CA684968206801F027FACD
:1027B0006021206801F072F8CFE7CA684968206894
:1027C00001F00CFA40212068F4E722680146104627
:1027D000F0E7000088FFCEFF200010002DE9F04157
:1027E0000D46040003D094F83D0018B108E0012024
:1027F000BDE8F081002084F83C00204600F042F85B
:10280000022084F83D00206881681D4A11408160E3
:10281000211D206800F0DAFF226890689169166A2D
:102820002B68AF69034340F20330814341EA07213B
:10283000A868EF6908434FF6FC418843E96840EA1D
:102840000720014328692F6A000140EA0730084346
:1028500069686D6926F0AA0646EA05152943936062
:102860002268906154F8480B0162012004F81F09A6
:102870006075A075E076207720750020B8E700002D
:10288000F8BFFEFF10B586B0044614216846FDF778
:102890008AFD1249206888421DD11148816D41F09E
:1028A00002018165816D01F002010591C16C41F069
:1028B0000201C164C06C002100F0020005903020CC
:1028C00000900220CDE901010321CDE90310694602
:1028D0000448FEF79DFE06B010BD00000004004055
:1028E000001002400004004870472DE9F041044602
:1028F0000068C66805694FF00007A90713D5B1073E
:1029000011D5F91E016101202077206880698007B8
:10291000204602D0FFF7E8FF04E000F0E1F820468F
:1029200000F0A3F92777680716D5700714D521683A
:102930006FF004000861022020772068806910F49D
:10294000407F204602D0FFF7CFFF04E000F0C8F838
:10295000204600F08AF92777280715D5300713D5C8
:1029600021686FF008000861042020772068C069A2
:102970008007204602D0FFF7B7FF04E000F0B0F870
:10298000204600F072F92777E80616D5F00614D530
:1029900021686FF010000861082020772068C06966
:1029A00010F4407F204602D0FFF79EFF04E000F0C5
:1029B00097F8204600F059F92777E80708D0F00784
:1029C00006D021686FF001000861204600F04EF942
:1029D000280601D4A80408D5300606D521686FF46E
:1029E000025008612046FFF774FDE80508D530065F
:1029F00006D521686FF4807008612046FFF768FDF6
:102A0000680608D5700606D521686FF04000086199
:102A1000204600F02CF9A80608D5B00606D5216896
:102A20006FF0200008612046FFF754FDE80208D54A
:102A3000F00206D521686FF4801008612046FFF788
:102A40009AFDA80208D5B00206D521686FF40010DF
:102A500008612046FFF78EFD680208D5700206D592
:102A600021686FF4800008612046FFF785FD280289
:102A70000AD5300208D521686FF4000008612046AD
:102A8000BDE8F041FFF7C8BDBDE8F08110B586B0E4
:102A9000044614216846FDF786FC0E4920688842EA
:102AA00015D10D48C16C41F00401C164C06C002116
:102AB00000F0040005900F2000900220CDE90101F4
:102AC0000321CDE9031069460448FEF7A1FD06B0D5
:102AD00010BD0000002C014000100240000800481A
:102AE000704770B5044690F83C0000260D4601285A
:102AF0000BD0012084F83C000C2A4AD007DC82B1BC
:102B0000042A20D0082A06D131E0022070BD102A04
:102B100053D0142A63D00126002084F83C003046AC
:102B200070BD206800F0C4FE2068816941F0080192
:102B300081612068816921F00401816120688169D7
:102B40002A69114311E0206800F000FF20688169C4
:102B500041F4006181612068816921F480618161B3
:102B6000206881692A6941EA02218161D4E72068ED
:102B700000F034FF2068C16941F00801C16120689C
:102B8000C16921F00401C1612068C1692A6911434A
:102B900011E0206800F06AFF2068C16941F400611B
:102BA000C1612068C16921F48061C1612068C16987
:102BB0002A6941EA0221C161AEE7206800F09EFF68
:102BC0002068016D41F0080101652068016D21F068
:102BD000040101652068016D2A69114311E0206834
:102BE00000F0C4FF2068016D41F4006101652068B8
:102BF000016D21F4806101652068016D2A6941EA57
:102C00000221016588E710B5040003D094F83D0067
:102C100010B107E0012010BD002084F83C002046E0
:102C200000F022F8022084F83D00211D206800F009
:102C3000CDFD012084F8480084F83E0084F83F0070
:102C400084F8400084F8410084F8420084F843008E
:102C500084F8440084F8450084F8460084F847006E
:102C600084F83D00002010BD7047704770477047E2
:102C700090F88410012918D0012180F884102421B3
:102C8000C0F8881001680A680B6823F001030B6024
:102C900022F0005100224266036819602021C0F82A
:102CA000881080F8842010467047022070477047D3
:102CB000704770B5044690F8840001281DD00120AB
:102CC00084F884002420C4F888002068056802681D
:102CD00022F0010202602068826822F060620A43EA
:102CE0008260204600F09EFF206805602020C4F826
:102CF0008800002084F8840070BD022070BD70B58B
:102D0000044690F8840001281DD0012084F8840036
:102D10002420C4F8880020680568026822F00102B7
:102D200002602068826822F060420A438260204686
:102D300000F078FF206805602020C4F8880000209B
:102D400084F8840070BD022070BD704770477047E2
:102D50002DE9F04103680446D86919689A6840F67D
:102D60000F0528424FF000054FF002060AD18706F2
:102D70007ED501F0200702F0805C57EA0C0777D07F
:102D8000616F42E1B64FDFF8DCC2174001EA0C0C7C
:102D900057EA0C0C6CD05FEAC07C0CD05FEAC15CD7
:102DA00009D54FF0010CC3F820C0D4F8903043F09F
:102DB0000103C4F89030830709D5D30707D02368EF
:102DC0001E62D4F8903043F00403C4F890304307F7
:102DD0000AD5D30708D0266804233362D4F890308C
:102DE00043F00203C4F8903003070CD501F0200330
:102DF0003B4308D0266808233362D4F8903043F070
:102E00000803C4F8903003050BD54B0109D526689B
:102E10004FF400633362D4F8903043F02003C4F8D9
:102E20009030D4F89030002B3DD0800609D501F0C9
:102E3000200002F08051084303D0616F09B12046A1
:102E40008847D4F8900021688968490602D410F0B8
:102E5000280F2AD0204600F0C9FF2068806840066D
:102E60001ED52068083050E8001F21F0400100E026
:102E700021E040E80012002AF3D1D4F8800078B1B4
:102E800079498163D4F88000FEF7C9FA00280AD096
:102E9000D4F88000816B00E02046BDE8F04108478F
:102EA0002046FFF754FFBDE8F0812046FFF74FFFB3
:102EB000C4F89050F7E7D4F86CC02027BCF1010F9C
:102EC0007ED15FEAC06C7BD55FEAC16C78D51020FB
:102ED000186220688068400651D5D4F880100A68CE
:102EE00050680004000C3ED0B4F85C3083423AD9FC
:102EF000A4F85E000868006880062CD4216851E8B8
:102F0000000F20F4807041E80002002AF6D120680A
:102F1000083050E8001F21F0010140E80012002AAB
:102F2000F5D12068083050E8001F21F0400140E84A
:102F30000012002AF5D1C4F88C70E566216851E8CA
:102F4000000F20F0100041E80002002AF6D1D4F86A
:102F50008000FEF72FFA2667B4F85C00B4F85E1024
:102F6000401A81B207E0B4F85C1081429BD110682E
:102F7000800698D526672046FFF799FE93E7B4F8B8
:102F80005C00B4F85E10401A81B2B4F85E0000280C
:102F900089D0002987D0226852E8000F20F4907071
:102FA00042E80003002BF6D12D4BDB4320680830AC
:102FB00050E8002F1A4040E8002CBCF1000F00E060
:102FC0000EE0F3D1C4F88C70E5666567206850E8C0
:102FD000002F22F0100240E80023002BF6D1C9E7B1
:102FE000C60209D5560207D54FF480101862204654
:102FF000BDE8F041FFF7AABE03060AD501F0800341
:1030000002F40002134304D0A16F00297FF444AFFF
:1030100049E7420611D54A060FD52046016851E816
:10302000002F22F0400241E80023002BF6D1C0F827
:103030008870856700F0B2F835E7020206D54A00CD
:1030400004D52046BDE8F041FFF77FBEC00195D50D
:10305000002993DA2046BDE8F041FFF729BE0000C1
:103060000100001020010004DD3D000810B504003F
:1030700003D0D4F8880010B107E0012010BD002073
:1030800084F88400204600F027F82420C4F8880043
:103090002068016821F001010160A06A10B120469A
:1030A00000F0E2FD204600F0CBFE0128E6D02068CB
:1030B000416821F4904141602068816821F02A0133
:1030C00081602068016841F0010101602046BDE88F
:1030D000104000F02DBE000070B598B006461421D7
:1030E00011A8FDF760F944216846FDF75CF926490F
:1030F0003068884245D101200025CDE900056846A9
:10310000FEF7AEFC08B1FDF7FAF92049086E40F46D
:1031100080400866086E00F480401690C86C40F04D
:103120000200C864C86C11A900F002001690C0200B
:1031300011900220CDE9120503201490072015906C
:103140001348FEF765FA144C12482060192060609D
:103150001020C4E902058020C4E90405A561E561E9
:1031600020462562FEF7F4F908B1FDF7C8F9F467C7
:10317000002203212520A662FEF7DAFB2520FEF7B8
:10318000C9FB18B070BD00000038014000100240BB
:10319000000400481C000240B80200207047FEE70F
:1031A00000EB8100006E00F0F840704700EB8100FA
:1031B000006E00F0F84070478068C0F3C0007047B0
:1031C0008068C0F3C00070478068C0F3800070471B
:1031D0008068C0F380007047C06810F4406F01D071
:1031E0000020704701207047042303EAD15310B533
:1031F00018444369C1F3045107248C40A3438A4017
:103200001343436110BD042303EAD15310B518449E
:103210004369C1F3045107248C40A3438A401343FC
:10322000436110BD00EB8100016E21F000411143AC
:103230000166704700EB8100016E21F000411143EF
:103240000166704770B598B020210FA8FDF7ABF864
:103250003C216846FDF7A7F8394838490024016049
:103260004FF44031C0E90114042585610121C46097
:10327000C0E90441047741770322026280F82440C8
:10328000C462046380F83810C46380F84040FDF7DE
:1032900013FF08B172B6FEE72A480F90062010907F
:1032A00005207F26CDE91106CDE913540FA9244846
:1032B000FDF7B8FB08B172B6FEE723480F900C206B
:1032C00010900FA91E48FDF7ADFB08B172B6FEE7DE
:1032D0001E480F90122010900FA91948FDF7A2FB6D
:1032E00008B172B6FEE71A48009001A9092081E8EA
:1032F0005100CDE9045402208DF8244008908DF847
:1033000025408DF826400A940B948DF8304069468C
:103310000B48FDF7F7F808B172B6FEE70D480090CC
:1033200040F20F10019069460548FDF7EBF80028C0
:1033300001D072B6FEE718B070BD00000001005069
:10334000100000200008302E001060320080F03E97
:103350000800900C000052472DE9F04F87B014216F
:103360006846FDF720F84848C16C41F00401C1648B
:10337000C16C01F004010591C16C41F02001C164F0
:10338000C16C01F020010591C16C41F00101C164E3
:10339000C16C01F001010591C16C41F00201C164F1
:1033A000C16C01F002010591C16C41F00801C164DA
:1033B000C06CDFF8D88000F008004FF4604405903E
:1033C000012221464046FEF747FA4FF0904900227D
:1033D00007214846FEF740FADFF8B4A00022012199
:1033E0005046FEF739FA0122D1034846FEF734FA77
:1033F0004FF40067002239464046FEF72DFADFF809
:1034000094B0002204215846FEF726FA00940124C5
:103410000025CDE90145694640460395FEF7F8F8D9
:1034200048F2070003268DE8710069464846FEF71A
:10343000EFF801AA009482E8700069465046FEF752
:10344000E7F82003CDE90005694602945046FEF7EF
:10345000DFF86002CDE90005694602944046FEF7B8
:10346000D7F801AA009782E8700069464046FEF747
:10347000CFF804208DE8710069465846FEF7C8F879
:1034800007B0BDE8F08F00000010024000080048BF
:1034900000040048000C0048124810B510490160B3
:1034A0004FF4827141604FF4004181604FF4E0615C
:1034B000C16000214FF400720161C0E905120822C9
:1034C000C0E9072107234162C0E90A13C0E90C12D1
:1034D000FEF740FF002801D072B6FEE710BD0000E5
:1034E000003C00407C00002010B59CB000241994E2
:1034F0001A9417941894149415941C2168461694E1
:10350000FCF751FF342107A8FCF74DFF3948384933
:10351000C0E900142021816041F29A01C0E903143E
:103520000121416180218161FFF777F808B172B60E
:10353000FEE74FF48050179017A92E48FFF7CEF8FA
:1035400008B172B6FEE72B48FFF75DFB08B172B613
:10355000FEE71494159414A926481694FFF70EF864
:1035600008B172B6FEE77020CDE90004029403941E
:1035700004940594002269461E480694FFF7B1FAA8
:1035800008B172B6FEE7042269461A48FFF7A9FAA5
:1035900008B172B6FEE7082269461648FFF7A1FA9D
:1035A00008B172B6FEE70C2269461248FFF799FA95
:1035B00008B172B6FEE70794089409944FF40050DE
:1035C0000A94CDE90B400D9400030E94CDE90F4011
:1035D0001194129407A907481394FEF77DFF08B1D0
:1035E00072B6FEE70348FFF751FA1CB010BD0000A9
:1035F000002C0140E000002010B588B000241748DE
:103600000094019402940394049405944FF0804133
:1036100006940160A921C0E901146321C0E90314E3
:1036200080218161FEF7F9FF08B172B6FEE74FF421
:103630008050009069460948FFF750F808B172B60B
:10364000FEE7049404A905480694FEF797FF0028B6
:1036500001D072B6FEE708B010BD00002C010020BA
:1036600010B58CB024216846FCF79DFE0024164856
:1036700009940A9413490B94C0E9001440F6FF71B1
:10368000C0E90241046184610320CDE90004012006
:10369000CDE902040494CDE90540079469460A483F
:1036A0000894FFF79BF808B172B6FEE7099409A9E0
:1036B00005480B94FEF762FF002801D072B6FEE7C2
:1036C0000CB010BD0004004078010020164810B571
:1036D0001449016015494160002181600C22C160DC
:1036E000C0E904128161C161016241628162FFF738
:1036F000BDFC08B172B6FEE700210B48FFF7FFFAE8
:1037000008B172B6FEE700210748FFF7D2FA08B108
:1037100072B6FEE70448FFF7ABFA002801D072B694
:10372000FEE710BD00380140C401002080841E0067
:10373000FEE7FEE770477047FEF79AB810B594B001
:1037400038216846FCF72FFE14210EA8FCF72BFE4B
:103750000020FEF71FF9012000900004032404213B
:103760000190CDE9084102205521CDE90A100790CA
:103770000C900D906846FEF7EBFB08B172B6FEE7C1
:103780000F20CDE90E04002010901190129004211A
:103790000EA8FEF7A9FA002801D072B6FEE714B011
:1037A00010BD00000248016841F4700101607047DB
:1037B00088ED00E00148FFF798B80000E000002025
:1037C0000148FFF792B800002C0100202DE9F043DA
:1037D0000268264B264D274E274C4FF080499842D1
:1037E00007D0484505D0A84203D0B04201D0A0423E
:1037F00003D122F070074A683A43204FDFF880C0B7
:10380000DFF8808098420DD048450BD0A84209D0FF
:10381000B04207D0A04205D0B84203D0604501D0E5
:10382000404503D122F44075CA682A434D6922F00D
:1038300080022A4302608A68C2620A6882629842F1
:1038400007D0A04205D0B84203D0604501D0404522
:1038500001D109690163012141610169C90703D0EF
:10386000016921F001010161BDE8F083002C0140F4
:1038700000040040000800400034014000400140C6
:10388000004401400048014010B5846842EA032228
:1038900024F47F440A432243826010BD8268034BB4
:1038A0001A400A4342F00701816070478FFFCFFF43
:1038B0002DE9F043056A026A22F0010202624368C0
:1038C00082691C4C25F0020522400C6822F003029C
:1038D00014438A68194E2A43174D194FDFF864C004
:1038E000DFF86490A84207D0B04205D0B84203D0B8
:1038F000604501D0484506D122F00808CA6842EA6E
:10390000080222F00402A84207D0B04205D0B84213
:1039100003D0604501D0484505D14D6923F440737B
:103920001D438B692B434360846149684163026294
:10393000BDE8F0838FFFFEFF002C01400034014002
:10394000004001400044014000480140F0B5056AD4
:10395000026A22F01002026242688369194C1B4E0F
:1039600023400C6823F4407343EA042425F0200329
:103970008D6843EA0513144DA84201D0B04206D128
:10398000CF6823F0800343EA071323F04003A842E3
:103990000AD0B04208D00E4DA84205D00D4DA84225
:1039A00002D00D4DA84207D14D6922F4406242EA8F
:1039B00085028D6942EA85024260846149688163BB
:1039C0000362F0BDFF8FFFFE002C01400034014078
:1039D000004001400044014000480140F0B5056A44
:1039E000026A22F4807202624368C269194C1B4E5B
:1039F00022400C6822F00302144325F400728D6803
:103A000042EA0522144DA84201D0B04206D1CF6847
:103A100022F4006242EA072222F48062A8420AD01D
:103A2000B04208D00E4DA84205D00E4DA84202D09B
:103A30000D4DA84207D14D6923F4405343EA0513C5
:103A40008D6943EA05134360C4614968C16302623A
:103A5000F0BD00008FFFFEFF002C0140003401404C
:103A6000004001400044014000480140F0B5056AB3
:103A7000026A22F4805202624268C369194C1B4EEA
:103A800023400C6823F4407343EA042425F40053D4
:103A90008D6843EA0533144DA84201D0B04206D1E7
:103AA000CF6823F4004343EA073323F48043A8425A
:103AB0000AD0B04208D00E4DA84205D00D4DA84204
:103AC00002D00D4DA84207D14D6922F4404242EA8E
:103AD00085128D6942EA85124260C46149680164B9
:103AE0000362F0BDFF8FFFFE002C01400034014057
:103AF00000400140004401400048014030B5056AE3
:103B0000026A22F4803202624268036D114C234043
:103B10000C681C4325F400330D8943EA05430E4D20
:103B2000A8420BD00D4DA84208D00D4DA84205D09B
:103B30000C4DA84202D00C4DA84204D14D6922F48C
:103B4000803242EA0522426004654968816403626A
:103B500030BD00008FFFFEFF002C0140003401400B
:103B600000400140004401400048014030B5046A73
:103B7000026A22F4801202624268036D114D24F43D
:103B800000142B400D6843EA05230D8944EA0554CF
:103B90000D4DA8420BD00D4DA84208D00C4DA842A7
:103BA00005D00C4DA84202D00B4DA84204D14D695E
:103BB00022F4802242EA8522426003654968C1649A
:103BC000046230BDFF8FFFFE002C01400034014035
:103BD00000400140004401400048014010B5036A24
:103BE000046A24F001040462846924F0F00444EAC5
:103BF000021423F00A020A438461026210BD10B568
:103C0000036A046A24F010040462846923F0A003A8
:103C100024F4704444EA023243EA011182610162F1
:103C200010BD000030B5416EB9B10268916892686C
:103C3000C1F342610B4B520F9C5CE50003F1080499
:103C4000A25CB5FBF2F2A0F86A205A5C615CD2007B
:103C5000B2FBF1F1A0F8681030BD0121A0F86A10A4
:103C6000F8E700000A42000890F82810090706D576
:103C700001684A68836B22F400421A434A6090F854
:103C80002810C90706D001684A68C36A22F40032C6
:103C90001A434A6090F82810890706D501684A68D7
:103CA000036B22F480321A434A6090F828104907C7
:103CB00006D501684A68436B22F480221A434A60A1
:103CC00090F82810C90606D501688A68C36B22F4EB
:103CD00080521A438A6090F82810890606D5016838
:103CE0008A68036C22F400521A438A6090F8281004
:103CF000490611D501684A68436C22F480121A43C0
:103D00004A60416CB1F5801F06D101684A68836C36
:103D100022F4C0021A434A6090F82810090606D51A
:103D200001684A68C06C22F4002202434A6070476E
:103D30002DE9F84300260446C0F89060FDF792FD97
:103D40008046206800684FF0200500076FF07E472E
:103D500013D54346002229042046009700F0AAF913
:103D600058B1216851E8000F20F0800041E80002BE
:103D7000002AF6D1C4F8885021E020680068400786
:103D800022D5434600224FF480012046009700F0E0
:103D900091F9C8B1216851E8000F20F4907041E812
:103DA0000002002AF6D12068083050E8001F21F0F8
:103DB000010140E80012002AF5D1C4F88C5084F8C3
:103DC00084600320BDE8F883C4F88850C4F88C50A0
:103DD00044F86C6F666026760020F3E710B5806AC1
:103DE0000021A0F85E10FEF7B2FF10BD10B502680A
:103DF00052E8001F21F4907142E80013002BF6D125
:103E00000E4B0268083252E8001F194042E80014C5
:103E1000002CF6D1C16E012908D1016851E8002FAC
:103E200022F0100241E80023002BF6D12021C0F837
:103E30008C100021C166416710BD0000FEFFFFEF3E
:103E40002DE9F0410446016880682269E369104366
:103E5000626900251A431043DFF82CC20A688B4BB5
:103E60001A4002430A6020684168E26821F4405128
:103E7000114341602168A069614501D0226A104365
:103E80008A68834B1A4002438A602068C16A626A6A
:103E900021F00F011143C1627E4923687E488B42A5
:103EA0000DD1D0F8880010F0030006D0012855D0BD
:103EB000022842D003283FD152E001203DE077495B
:103EC0008B420BD1D0F8880010F00C0035D00428BC
:103ED00033D0082840D00C282ED141E070498B42C5
:103EE0000BD1D0F8880010F0300026D0102835D043
:103EF000202831D030281FD132E06A498B420BD1C3
:103F0000D0F8880010F0C00017D0402826D08028B4
:103F100022D0C02810D123E063450DD1D0F888000D
:103F200010F4406009D0B0F5806F17D0B0F5006F85
:103F300012D0B0F5406F13D010205B495B4F0026C4
:103F40004FF4004263453BD160B1022813D00428EE
:103F50000BD0082872D10DE00220EEE70420ECE738
:103F60000820EAE7FDF7A4FF01E0FDF7C5FF010027
:103F700001D17CE01146606A37F810206768B1FB18
:103F8000F2F007EB4703834270D8B0EB073F6DD8E0
:103F9000002308461946FCF78FF9090241EA10612F
:103FA00002027808101871413A460023FCF784F9A0
:103FB0003F4AA0F54071914258D82168C86056E048
:103FC000E3694FF6EF7893422CD109284ED2DFE80F
:103FD00000F00508114D0D4D4D4D1000FDF768FF27
:103FE00001E0FDF777FF010004D140E0FDF784FF19
:103FF000F9E71146606A37F81000B1FBF0F04100B4
:10400000606801EB5001B1FBF0F0A0F110014145F7
:104010002CD84FF6F0710140C0F3420001432068F4
:10402000C16024E0092821D2DFE800F00509122050
:104030000E2020201100FDF73BFF02E016E0FDF707
:1040400049FF010004D112E0FDF756FFF9E71146E0
:10405000606A37F81000B1FBF0F1606801EB5001C5
:10406000B1FBF0F0A0F1100141450AD90125012072
:10407000A4F86A0024F8680F2846E6602661BDE8C7
:10408000F08180B299E7000000800040F369FFCF23
:10409000FFF4FF11003801400010024000440040CE
:1040A00000480040004C00400024F400F2410008A9
:1040B000FFFC0F002DE9F047994617460D460446D0
:1040C0004FF00008089E33E0701C31D0FDF7CAFBAA
:1040D000A0EB0900B04218D8BEB1206801684907BA
:1040E00026D5802D24D0402D22D0C169C94309078F
:1040F0000DD4082505622046FFF778FEC4F89050DD
:1041000084F884800120BDE8F0870320FBE7C069C4
:10411000C04300050CD421684FF4006008622046BB
:10412000FFF764FE2020C4F8900084F88480ECE758
:104130002068C06935EA000004D00020B842C3D02E
:104140000020E0E70120F9E70148FEF701BE00008A
:10415000C4010020FEE70907090E002804DB00F176
:10416000E02080F80014704700F00F0000F1E0201C
:1041700080F8141D7047000008B5FDF781FBFFF7BC
:10418000DDFAFFF7E9F81748816C41F0040181641A
:10419000816C01F004010091816C41F001018164A6
:1041A000806C002200F00100009011460B20FDF70A
:1041B000BFFB0B20FDF7AEFB002211460C20FDF7E4
:1041C000B7FB0C20FDF7A6FBFFF73CF8FFF78CF9D7
:1041D000FFF746FAFFF760F9FFF778FAFFF70CFAF6
:1041E000FEE70000001002404FF04070E1EE100AC0
:1041F0007047010002000400060008000A000C00DD
:1042000010002000400080000001010101030701AF
:104210000000080402040801010100000000000081
:104220000000010203040607080900000000010263
:1042300003040000544200080000002010000000A9
:104240001402000864420008100000206809000001
:104250003002000810000000010000000000000013
:044260000024F40042
:04000005080001D915
:00000001FF
